{
  "contractName": "Book",
  "abi": [
    {
      "inputs": [
        {
          "internalType": "uint256",
          "name": "_age",
          "type": "uint256"
        }
      ],
      "name": "set_age",
      "outputs": [],
      "stateMutability": "nonpayable",
      "type": "function"
    },
    {
      "inputs": [],
      "name": "get_age",
      "outputs": [
        {
          "internalType": "uint256",
          "name": "",
          "type": "uint256"
        }
      ],
      "stateMutability": "view",
      "type": "function",
      "constant": true
    },
    {
      "inputs": [],
      "name": "get_eth",
      "outputs": [],
      "stateMutability": "payable",
      "type": "function",
      "payable": true
    }
  ],
  "bytecode": "0x6080604052606460005534801561001557600080fd5b50610174806100256000396000f3fe6080604052600436106100345760003560e01c806322d342121461003957806332b3b2ca1461004357806367fdf9fa1461006e575b600080fd5b610041610097565b005b34801561004f57600080fd5b50610058610099565b60405161006591906100c5565b60405180910390f35b34801561007a57600080fd5b5061009560048036038101906100909190610111565b6100a2565b005b565b60008054905090565b8060008190555050565b6000819050919050565b6100bf816100ac565b82525050565b60006020820190506100da60008301846100b6565b92915050565b600080fd5b6100ee816100ac565b81146100f957600080fd5b50565b60008135905061010b816100e5565b92915050565b600060208284031215610127576101266100e0565b5b6000610135848285016100fc565b9150509291505056fea264697066735822122025c76eefa3b65efebdd4b5c4321da2cfdaa238240900e955a1fa8d75134d588e64736f6c634300080b0033",
  "immutableReferences": {},
  "source": "//SPDX-License-Identifier:GPL-3.0\r\n\r\npragma solidity 0.8.11;\r\n\r\ncontract Book{\r\n   uint  age=100;\r\n\r\n\r\n    function set_age(uint _age) external {\r\n        age=_age;\r\n    }\r\n   function get_age() external view returns(uint){\r\n       return age;\r\n   }\r\n   function get_eth() public payable{\r\n       \r\n   }\r\n}",
  "sourcePath": "C:\\Users\\ACT\\Desktop\\web3\\contracts\\Book.sol",
  "compiler": {
    "name": "solc",
    "version": "0.8.11+commit.d7f03943.Emscripten.clang"
  },
  "schemaVersion": "3.4.4",
  "updatedAt": "2022-01-29T14:21:36.377Z",
  "networkType": "ethereum",
  "devdoc": {
    "kind": "dev",
    "methods": {},
    "version": 1
  },
  "userdoc": {
    "kind": "user",
    "methods": {},
    "version": 1
  }
}